:020000040020DA
:1000000000800020F1122000291320002B13200073
:100010002D1320002D1320002D13200000000000C0
:100020000000000000000000000000002D13200070
:100030002D132000000000002D1320007B0D200058
:100040002D1320002D1320002D1320002D13200030
:10005000000000002D1320002D1320002D13200080
:100060002D13200000000000000000000000000030
:1000700000000000000000002D1320000000000020
:1000800000000000000000002D1320002D132000B0
:100090002D1320002D1320002D1320002D132000E0
:1000A0002D1320002D1320002D1320002D132000D0
:1000B0002D1320002D1320002D1320002D132000C0
:1000C0002D1320002D1320002D1320002D132000B0
:1000D0002D132000000000000000000000000000C0
:1000E0000000000000000000000000000000000010
:1000F0002D132000000000002D1320002D132000E0
:1001000070B504000D001600DFF8D803844210D04B
:10011000DFF8D40384420CD0DFF8D003844208D047
:10012000DFF8CC03844204D0FB21DFF8C80300F0E1
:1001300021FAEDB2002D04D1FC21DFF8B80300F064
:1001400019FADFF8B403002103E0DFF8AC0306601E
:10015000491C08292CD2EDB22800084110F00100FA
:100160000028F5D02000DFF87C2390420CD0DFF887
:10017000782390420DD0DFF8742390420ED0DFF840
:10018000702390420FD0E0E7DFF8700350F82100B1
:10019000DDE7DFF86C0350F82100D8E7DFF86403EF
:1001A00050F82100D3E7DFF8600350F82100CEE7D4
:1001B00070BDF8B504000D0016000027DFF8240319
:1001C000844211D0DFF8200384420DD0DFF81C03F5
:1001D000844209D0DFF81803844205D040F26D1143
:1001E000DFF8100300F0C6F9EDB2012D1AD0EDB220
:1001F000022D17D0EDB2042D14D0EDB2082D11D080
:10020000EDB2102D0ED0EDB2202D0BD0EDB2402D61
:1002100008D0EDB2802D05D040F27111DFF8D40284
:1002200000F0A8F9DFF8E402864255D0DFF8E002DA
:10023000864251D0DFF8DC0286424DD0DFF8D8028A
:10024000864249D0DFF8D402864245D0DFF8D0029A
:10025000864241D0DFF8CC0286423DD0DFF8C802AA
:10026000864239D0DFF8C402864235D0DFF8C002BA
:10027000864231D0DFF8BC0286422DD0DFF8B802CA
:10028000864229D0DFF8B402864225D0DFF8B002DA
:10029000864221D0DFF8AC0286421DD0DFF8A802EA
:1002A000864219D0DFF8A402864215D0DFF8A002FA
:1002B000864211D0DFF89C0286420DD0DFF898020A
:1002C000864209D0DFF89402864205D04FF4C3710C
:1002D000DFF8200200F04EF9DFF8080284420CD06B
:1002E000DFF80402844229D0DFF80002844246D0BD
:1002F000DFF8FC01844263D083E0EDB2012D00D130
:100300000027EDB2022D00D10127EDB2042D00D15E
:100310000227EDB2082D00D10327EDB2102D00D138
:100320000427EDB2202D00D10527EDB2402D00D1DC
:100330000627EDB2802D00D1072763E0EDB2012D35
:1003400000D10827EDB2022D00D10927EDB2042D0E
:1003500000D10A27EDB2082D00D10B27EDB2102DE8
:1003600000D10C27EDB2202D00D10D27EDB2402D8C
:1003700000D10E27EDB2802D00D10F2742E0EDB263
:10038000012D00D11027EDB2022D00D11127EDB2C1
:10039000042D00D11227EDB2082D00D11327EDB2A4
:1003A000102D00D11427EDB2202D00D11527EDB26C
:1003B000402D00D11627EDB2802D00D1172721E066
:1003C000EDB2012D00D11827EDB2022D00D1192771
:1003D000EDB2042D00D11A27EDB2082D00D11B2754
:1003E000EDB2102D00D11C27EDB2202D00D11D271C
:1003F000EDB2402D00D11E27EDB2802D00D11F2778
:1004000000E000273760F1BD70B504000D00160054
:10041000344884420DD0344884420AD03348844260
:1004200007D03348844204D040F25921314800F0CB
:10043000A1F8EDB2002D04D140F25A212D4800F070
:1004400099F8082E0CD0042E0AD0022E08D0012EC6
:1004500006D0002E04D040F25F21264800F08AF832
:10046000224884420FD1EDB215F00F0001280ADBBB
:10047000042E03D0022E01D0012E04D140F26621B9
:100480001C4800F077F81C48002102E03448066060
:10049000491C082924D2EDB22800084110F00100BF
:1004A0000028F5D020000F4A904209D00E4A904211
:1004B0000AD00E4A90420BD00D4A90420CD0E5E78C
:1004C000284850F82100E2E7274850F82100DEE7ED
:1004D000264850F82100DAE7254850F82100D6E7F1
:1004E00070BD000000900D4000A00D4000B00D4018
:1004F00000C00D40E413200000400D401C152000FA
:100500003C1520005C1520007C15200000410D40AA
:1005100004410D4008410D400C410D4010410D407B
:1005200014410D4018410D401C410D4020410D402B
:1005300024410D4028410D402C410D4030410D40DB
:1005400034410D4038410D403C410D4040410D408B
:1005500044410D4048410D404C410D4050410D403B
:1005600080400D409C142000BC142000DC142000AE
:10057000FC142000FEE7000070B506000C0015001A
:10058000002E07D0012E05D04FF4B171DFF88C0298
:10059000FFF7F0FFDFF8880250F8260000F02CFA91
:1005A000002827D0DFF87C0250F82600DFF8781208
:1005B0000860DFF86C0250F8260000F048FADFF817
:1005C0006802006800F0F4FA41F6FF71964800688E
:1005D00000F027FB01219448006800F037FB6023FE
:1005E000220029009048006800F07DFA8E480068DB
:1005F00000F0BFFA70BD10B5040000F0AAF90200C7
:100600005FF461312000FFF7B7FF10BD70B5040043
:100610000D0085480068002804D140F25E217F4823
:10062000FFF7A8FF002C04D140F25F217B48FFF7C1
:10063000A1FF00260DE0A05D0A2804D10D217A4813
:10064000006800F0D9FAA15D7748006800F0D4FA9C
:10065000761CAE42EFD3300070BDF0B585B005001A
:100660000C00002D0CD140F2C5316C48FFF782FF21
:1006700006E02068241D009001216846FFF7C6FFB0
:100680002878002800F0C480002700E07F1CE85D87
:10069000252802D0E85D0028F8D139002800FFF7AE
:1006A000B5FF3D4428782528EAD16D1C002620207E
:1006B0000CE015F8011C302902D1002E00D13020A9
:1006C0000A214E4315F8011C30398E1929004D1CA2
:1006D0000978253900F092800B390929E9D92839A0
:1006E0003CD00B39C5D0491E0AD0491F08D0C91FBC
:1006F00034D0C91E13D0891E29D0C91E2ED082E045
:100700002168241D00910021009A002A04D5009A36
:1007100052420092012300E000230A2224E02068D4
:10072000241D002700E07F1CC15D0029FBD139009A
:10073000FFF76CFFB74209D2F61B03E0012136A098
:10074000FFF764FF3000461E0028F7D198E72168C4
:10075000241D009100210A22002305E02168241DA8
:100760000091002110220023012701E05743761E4B
:10077000DDF800C002FB07FEF44505D302FB07FCD1
:10078000BCFBF2FCBC45F1D0002B00D0761E002B48
:1007900009D0C0B2302806D12D230DF1040C0CF87D
:1007A0000130491C0023B6F1020CBCF10E0F09D236
:1007B000761E05E00DF1040C0CF80100491C761EB4
:1007C000002EF7D1002B13D02D2001AB5854491C1B
:1007D0000EE00098B0FBF7F0B0FBF2F302FB130061
:1007E000124B1B68185C01AB5854491CB7FBF2F75D
:1007F000002FEED101A8FFF709FF41E70121681E94
:10080000FFF704FF3CE705210948FFF7FFFE37E744
:1008100005B0F0BD0000000020000000E81120003D
:100820001C16200014162000084100202416200069
:100830000C1620000EB400B501A9FFF70EFF5DF8FD
:1008400010FB0000002820D001281ED002281CD058
:1008500003281AD0B0F5807F17D040F201118842EA
:1008600013D0B0F5007F10D040F2012188420CD0A7
:10087000B0F5407F09D0B0F5806F06D040F201415D
:10088000884202D0B0F5A06F01D1012000E0002025
:10089000C0B2704770B505000E001400002C0DD0DA
:1008A000012C0BD0022C09D0032C07D0042C05D02E
:1008B000052C03D0062C01D0072C04D1002C07D125
:1008C000F6B2002E04D0D921DFF8C001FFF752FEA6
:1008D000F6B2002E07D1DFF8B801006850F400101E
:1008E000DFF8AC110860DFF8A8010068DFF8A41198
:1008F0000840EDB2002D01D150F08070F6B2002E0C
:1009000002D05FF4803500E0002528432043DFF863
:1009100080110860DFF880010068002406E01020E4
:1009200000F066F8DFF870010068641C10F4803095
:10093000854203D04FF6FF708442F0D34FF6FF702C
:10094000844205D34FF48171DFF84001FFF712FEB6
:1009500070BDDFF84401006810F007010020002995
:100960000BD002290FD00BD3042912D00ED30629A5
:1009700015D011D3072915D016E0DFF8200113E0B8
:10098000DFF81C0110E0DFF81C010DE0DFF81801B2
:100990000AE0DFF8180107E0DFF8140104E0DFF8EF
:1009A000140101E0DFF81001704710B50400002CBD
:1009B00013D0012C11D0022C0FD0032C0DD0042CFD
:1009C0000BD0052C09D0062C07D0072C05D04FF4EE
:1009D000B071DFF8B800FFF7CDFDDFF8B4000068B4
:1009E00030F4E06050EA0420DFF8A410086010BD85
:1009F0000138FDD17047704710B504002000FFF7A3
:100A000021FF002804D140F26F212048FFF7B2FDFA
:100A1000C4F30320042807D0C4F30320042803D020
:100A2000C4F30320052802D12448006801E02448CB
:100A300000682449C4F3032251F8221014F00F0275
:100A40009140084201D0012000E0002010BD10B507
:100A500004002000FFF7F6FE002804D140F2D72161
:100A60000A48FFF787FD1848C4F3032150F8210016
:100A70001549C4F3032251F822100968012214F029
:100A80000F039A401143016010BD00007012200056
:100A900000200D40F8FFFEFE04200D400048E80154
:100AA0000024F40000127A0000093D0080841E003A
:100AB00040420F0020A1070090D003001C300D40E1
:100AC00018300D40B41520009C152000DFF8B0113F
:100AD000884203D0DFF8AC11884201D1012000E048
:100AE0000020C0B27047F8B504000E0017001D00CA
:100AF0002000FFF7EBFF002805D140F21511DFF8C9
:100B00008801FFF737FD002F05D14FF48B71DFF817
:100B10007801FFF72FFD200000F04AF8B6EB071F21
:100B200009D214F13000006850F0200014F13001B7
:100B300008607F0807E014F13000006830F0200002
:100B400014F130010860F000B0FBF7F0401C4008E1
:100B5000810914F12402116010F03F0014F1280102
:100B6000086014F12C000560002014F118010860E1
:100B7000F1BD10B504002000FFF7A8FF002805D143
:100B800040F2A311DFF80001FFF7F4FC14F12C0090
:100B9000006850F0100014F12C01086014F13000CE
:100BA000006840F20131084314F13001086010BDC3
:100BB00010B504002000FFF789FF002805D140F29E
:100BC000C311DFF8C400FFF7D5FC14F1180000686A
:100BD0000007FAD414F12C00006830F0100014F172
:100BE0002C01086014F130000068DFF8A010084004
:100BF00014F13001086010BD38B504000D0020006C
:100C0000FFF764FF002804D14FF455711E48FFF729
:100C1000B1FC14F1180000688006FAD4EDB225602A
:100C200031BD38B504000D002000FFF74FFF00284C
:100C300004D140F237411448FFF79CFC14F138000E
:100C40000068A84314F13801086031BD38B50400CC
:100C50000D002000FFF73AFF002804D140F22F5189
:100C60000948FFF787FC002D06D0012D04D04FF472
:100C7000A6610548FFF77EFC04F6C870056031BD2B
:100C800000C0004000D0004020142000FEFCFFFF08
:100C900080B5F0216E4800F09DF90022F0216C48EB
:100CA00000F068F901BD80B5002202216948FFF714
:100CB00027FA0221674800F0CFF9674A0121654809
:100CC000FFF777FA0121634800F09FF90020FFF752
:100CD00092FC01BDC0B2052148432C385F49086031
:100CE000704780B501205E49086001205D490860B9
:100CF00001205D49086009205C49086015205C49B5
:100D000008600B205B49086040205B4908600020B8
:100D10005A4908607F205A4908605A480068C0B2A2
:100D2000FFF7D8FF7F205849086001BD5748006889
:100D300010F03F0F08D1ED2055490860ED205449CF
:100D40000860E3205249086052480068C007FBD59C
:100D5000514800684938643040B2002800D500206E
:100D600040B2704780B508214C4800F033F90822A2
:100D700008214A4800F0FEF801BD80B50022082194
:100D8000464800F0F7F8FFF7D1FF020052B23D48A5
:100D900001684348FFF74EFD082208213F4800F054
:100DA000E9F840480068411C3E4A1160B0F5FA7FFE
:100DB00006D100F09DF900221021254800F0DAF854
:100DC00001BD80B50821224800F0E9F801BD80B5D9
:100DD000002200210020FFF75DFD0020FFF7E5FD68
:100DE000FFF761FF3048FFF725FDFFF77AFFFFF7B8
:100DF000B9FFFFF74DFFFFF7ACFD4FF4FA61B0FB11
:100E0000F1F000F07CF900F073F900F0D1F9274817
:100E100000F05BF9FFF7D5FF00F086F900F04EF91E
:100E200008210B4800F093F80028F9D10821084860
:100E300000F08DF80028F9D001201A49086000F070
:100E400050F910221021024800F094F8E8E7000061
:100E500000B00D4000900D4000410D403C86084020
:100E6000A8200D40AC200D40B0200D40E887084080
:100E7000C886084004600D40248608400886084063
:100E8000508608400041002094860840488608406B
:100E900038880840648608406086084000C00D40DD
:100EA0000416200004410020CC1520007B0D2000FA
:100EB000DFF8F41188420BD0DFF8F011884207D038
:100EC000DFF8EC11884203D0DFF8E811884201D145
:100ED000012000E00020C0B2704770B504000D0092
:100EE00016002000FFF7E4FF002804D1B521DFF849
:100EF000C801FFF73FFB002E08D0012E06D0022EBE
:100F000004D0B721DFF8B001FFF734FBF00705D5B7
:100F100014F580600068EDB2284304E014F58060A9
:100F20000068EDB2A84314F580610860B00705D5EC
:100F300014F584600068EDB2284304E014F5846081
:100F40000068EDB2A84314F58461086070BD38B53F
:100F500004000D002000FFF7ABFF002805D14FF47F
:100F60001471DFF85401FFF705FBEDB214EB8500B7
:100F7000006832BD70B504000D0016002000FFF7B8
:100F800097FF002805D14FF41C71DFF82C01FFF703
:100F9000F1FAF6B2EDB214EB8500066070BD38B51B
:100FA00004000D002000FFF783FF002805D14FF457
:100FB0002471DFF80401FFF7DDFA00222900C9B22D
:100FC0002000FFF78AFF00222900C9B22000FFF7A6
:100FD0001BFA31BD38B504000D002000FFF768FF93
:100FE000002805D140F2B521DFF8CC00FFF7C2FAA6
:100FF00001222900C9B22000FFF76FFF002229005B
:10100000C9B22000FFF700FA31BD38B504000D0069
:101010002000FFF74DFF002804D140F25B31264845
:10102000FFF7A8FA2248844209D1EDB215F00F006B
:10103000012804DB4FF457711F48FFF79BFA022287
:101040002900C9B22000FFF748FF00222900C9B2D9
:101050002000FFF7D9F931BD38B504000D0020009C
:10106000FFF726FF002804D140F285311248FFF730
:1010700081FA0F48844209D1EDB215F00F00012822
:1010800004DB40F286310C48FFF774FA0222290093
:10109000C9B22000FFF721FF08222900C9B22000B1
:1010A000FFF7B2F931BD000000900D4000A00D40E7
:1010B00000B00D4000C00D40A81320001748006884
:1010C00050F0050015490860704780B501000F20F9
:1010D00000F034F81148006850F002000F49086031
:1010E00001BD0E48006850F002000C4908607047CE
:1010F0000A48006830F0020008490860704710B5DF
:101100000400002C02D0B4F1807F03D9DE21044812
:10111000FFF730FA601E0349086010BD10E000E0E0
:10112000B012200014E000E080B500F059F800286B
:1011300001D0012000E00020C0B202BD38B504009B
:101140000D00402C04D3FE21DFF88400FFF712FAD3
:1011500000F035F8002805D14FF48171DFF87000F8
:10116000FFF708FADFF86C00800505D04FF48571B1
:10117000DFF85C00FFF7FEF9DFF85C000068DFF8DD
:101180005410884210D0DFF850000168002006E0BB
:1011900011EB800212680F4B43F82020401C4028BE
:1011A000F6D30C480C4908600A4840F8245031BD79
:1011B0000A48006850F00100084908607047074875
:1011C0000068C00701D5012000E000207047000042
:1011D000301220000040002008ED00E098200D4073
:1011E000EFF3108062B67047453A5C476974487502
:1011F000625C6363323533385F74695F66773130C0
:1012000031305C6472697665726C69625C6363320A
:101210003533385C6578616D706C65735C757469C5
:101220006C735C75617274737464696F2E63000013
:10123000453A5C4769744875625C6363323533389C
:101240005F74695F6677313031305C6472697665EE
:10125000726C69625C6363323533385C736F7572CC
:1012600063655C696E746572727570742E630000DC
:10127000453A5C4769744875625C6363323533385C
:101280005F74695F6677313031305C6472697665AE
:10129000726C69625C6363323533385C736F75728C
:1012A00063655C7379735F6374726C2E6300000016
:1012B000453A5C4769744875625C6363323533381C
:1012C0005F74695F6677313031305C64726976656E
:1012D000726C69625C6363323533385C736F75724C
:1012E00063655C7379737469636B2E63000000003F
:1012F00080B5094809490A68094B9A4203D102009E
:10130000501E002AF7D10748006850F00100054937
:10131000086000F00CF801BD80841E000030002041
:101320004812F0A598200D40FEE7FEE7FEE7AFF378
:101330000080AFF3008000F001F8000000F00BF82F
:10134000002801D000F00AF80020AFF30080FFF77A
:101350003EFD00F017F801207047000010B5074966
:1013600079441831064C7C44163404E00A68081DA0
:10137000114488470146A142F8D110BD0C0100007C
:101380001C01000000F000B80746384600F002F8E3
:10139000FBE7000080B5AFF30080024A110018207F
:1013A000ABBEFBE726000200453A5C47697448750E
:1013B000625C6363323533385F74695F66773130FE
:1013C00031305C6472697665726C69625C63633249
:1013D0003533385C736F757263655C6770696F2E47
:1013E00063000000453A5C4769744875625C63635A
:1013F000323533385F74695F6677313031305C6421
:1014000072697665726C69625C6363323533385C2D
:10141000736F757263655C696F632E630000000013
:10142000453A5C4769744875625C636332353338AA
:101430005F74695F6677313031305C6472697665FC
:10144000726C69625C6363323533385C736F7572DA
:1014500063655C756172742E6300000010B450F80F
:10146000041B79B10268436802440830DC0744BFBA
:10147000A9F10104E31852F8044B43F8044B091F87
:10148000F9D1ECE710BC7047D5FFFFFF0C0000005E
:1014900068010000004100200000000080400D4075
:1014A00084400D4088400D408C400D4090400D40E0
:1014B00094400D4098400D409C400D40A0400D4090
:1014C000A4400D40A8400D40AC400D40B0400D4040
:1014D000B4400D40B8400D40BC400D40C0400D40F0
:1014E000C4400D40C8400D40CC400D40D0400D40A0
:1014F000D4400D40D8400D40DC400D40E0400D4050
:10150000E4400D40E8400D40EC400D40F0400D40FF
:10151000F4400D40F8400D40FC400D4000400D40AF
:1015200004400D4008400D400C400D4010400D405F
:1015300014400D4018400D401C400D4020400D400F
:1015400024400D4028400D402C400D4030400D40BF
:1015500034400D4038400D403C400D4040400D406F
:1015600044400D4048400D404C400D4050400D401F
:1015700054400D4058400D405C400D4060400D40CF
:1015800064400D4068400D406C400D4070400D407F
:1015900074400D4078400D407C400D4008200D40C7
:1015A00018200D4028200D4038200D4048200D40C7
:1015B000A8200D4001000000000100000000010013
:1015C0000000000101000000040000000A53424135
:1015D0004E2052535349206C6976652073747265AE
:1015E000616D0A0030313233343536373839616253
:1015F00063646566000000000C000000000000004D
:101600000000000025642025640A00004552524F66
:101610005200000000C0004000D000400002000066
:0816200001020000E4152000A6
:020000040023D7
:0CFFD400FFFFFFEF000000000000200015
:040000050020132F95
:00000001FF
