:020000040020DA
:1000000000800020A9142000E1142000E314200047
:10001000E5142000E5142000E51420000000000095
:10002000000000000000000000000000E5142000B7
:10003000E514200000000000E5142000E514200075
:10004000E5142000E5142000E514200053102000E2
:1000500000000000E5142000E5142000E514200055
:10006000E514200000000000000000000000000077
:100070000000000000000000E51420000000000067
:100080000000000000000000E5142000E51420003E
:10009000E5142000E5142000E5142000E5142000FC
:1000A000E5142000E5142000E5142000E5142000EC
:1000B000E5142000E5142000E5142000E5142000DC
:1000C000E5142000E5142000E5142000E5142000CC
:1000D000E514200000000000000000000000000007
:1000E0000000000000000000000000000000000010
:1000F000E514200000000000E5142000E5142000B5
:1001000070B504000D001600DFF8D803844210D04B
:10011000DFF8D40384420CD0DFF8D003844208D047
:10012000DFF8CC03844204D0FB21DFF8C80300F0E1
:1001300021FAEDB2002D04D1FC21DFF8B80300F064
:1001400019FADFF8B403002103E0DFF8AC0306601E
:10015000491C08292CD2EDB22800084110F00100FA
:100160000028F5D02000DFF87C2390420CD0DFF887
:10017000782390420DD0DFF8742390420ED0DFF840
:10018000702390420FD0E0E7DFF8700350F82100B1
:10019000DDE7DFF86C0350F82100D8E7DFF86403EF
:1001A00050F82100D3E7DFF8600350F82100CEE7D4
:1001B00070BDF8B504000D0016000027DFF8240319
:1001C000844211D0DFF8200384420DD0DFF81C03F5
:1001D000844209D0DFF81803844205D040F26D1143
:1001E000DFF8100300F0C6F9EDB2012D1AD0EDB220
:1001F000022D17D0EDB2042D14D0EDB2082D11D080
:10020000EDB2102D0ED0EDB2202D0BD0EDB2402D61
:1002100008D0EDB2802D05D040F27111DFF8D40284
:1002200000F0A8F9DFF8E402864255D0DFF8E002DA
:10023000864251D0DFF8DC0286424DD0DFF8D8028A
:10024000864249D0DFF8D402864245D0DFF8D0029A
:10025000864241D0DFF8CC0286423DD0DFF8C802AA
:10026000864239D0DFF8C402864235D0DFF8C002BA
:10027000864231D0DFF8BC0286422DD0DFF8B802CA
:10028000864229D0DFF8B402864225D0DFF8B002DA
:10029000864221D0DFF8AC0286421DD0DFF8A802EA
:1002A000864219D0DFF8A402864215D0DFF8A002FA
:1002B000864211D0DFF89C0286420DD0DFF898020A
:1002C000864209D0DFF89402864205D04FF4C3710C
:1002D000DFF8200200F04EF9DFF8080284420CD06B
:1002E000DFF80402844229D0DFF80002844246D0BD
:1002F000DFF8FC01844263D083E0EDB2012D00D130
:100300000027EDB2022D00D10127EDB2042D00D15E
:100310000227EDB2082D00D10327EDB2102D00D138
:100320000427EDB2202D00D10527EDB2402D00D1DC
:100330000627EDB2802D00D1072763E0EDB2012D35
:1003400000D10827EDB2022D00D10927EDB2042D0E
:1003500000D10A27EDB2082D00D10B27EDB2102DE8
:1003600000D10C27EDB2202D00D10D27EDB2402D8C
:1003700000D10E27EDB2802D00D10F2742E0EDB263
:10038000012D00D11027EDB2022D00D11127EDB2C1
:10039000042D00D11227EDB2082D00D11327EDB2A4
:1003A000102D00D11427EDB2202D00D11527EDB26C
:1003B000402D00D11627EDB2802D00D1172721E066
:1003C000EDB2012D00D11827EDB2022D00D1192771
:1003D000EDB2042D00D11A27EDB2082D00D11B2754
:1003E000EDB2102D00D11C27EDB2202D00D11D271C
:1003F000EDB2402D00D11E27EDB2802D00D11F2778
:1004000000E000273760F1BD70B504000D00160054
:10041000344884420DD0344884420AD03348844260
:1004200007D03348844204D040F25921314800F0CB
:10043000A1F8EDB2002D04D140F25A212D4800F070
:1004400099F8082E0CD0042E0AD0022E08D0012EC6
:1004500006D0002E04D040F25F21264800F08AF832
:10046000224884420FD1EDB215F00F0001280ADBBB
:10047000042E03D0022E01D0012E04D140F26621B9
:100480001C4800F077F81C48002102E03448066060
:10049000491C082924D2EDB22800084110F00100BF
:1004A0000028F5D020000F4A904209D00E4A904211
:1004B0000AD00E4A90420BD00D4A90420CD0E5E78C
:1004C000284850F82100E2E7274850F82100DEE7ED
:1004D000264850F82100DAE7254850F82100D6E7F1
:1004E00070BD000000900D4000A00D4000B00D4018
:1004F00000C00D40D013200000400D402016200009
:1005000040162000601620008016200000410D409B
:1005100004410D4008410D400C410D4010410D407B
:1005200014410D4018410D401C410D4020410D402B
:1005300024410D4028410D402C410D4030410D40DB
:1005400034410D4038410D403C410D4040410D408B
:1005500044410D4048410D404C410D4050410D403B
:1005600080400D40A0152000C0152000E01520009F
:1005700000162000FEE70000DFF8C01288420BD012
:10058000DFF8BC12884207D0DFF8B812884203D0E7
:10059000DFF8B412884201D1012000E00020C0B28F
:1005A000704770B504000D0016002000FFF7E4FF4F
:1005B000002804D1B521DFF89402FFF7DBFF002EFD
:1005C00008D0012E06D0022E04D0B721DFF87C021D
:1005D000FFF7D0FFF00705D514F580600068EDB295
:1005E000284304E014F580600068EDB2A84314F5D8
:1005F00080610860B00705D514F584600068EDB22D
:10060000284304E014F584600068EDB2A84314F5B3
:100610008461086070BD70B504000D0016002000F4
:10062000FFF7AAFF002805D140F21911DFF81C02DC
:10063000FFF7A0FF002E0DD0042E0BD0012E09D005
:10064000022E07D0072E05D04FF48E71DFF8FC0183
:10065000FFF790FFF00705D514F581600068EDB253
:10066000284304E014F581600068EDB2A84314F556
:1006700081610860B00705D504F204400068EDB25E
:10068000284304E004F204400068EDB2A84304F2F9
:1006900004410860700705D504F20C400068EDB213
:1006A000284304E004F20C400068EDB2A84304F2D1
:1006B0000C41086070BD38B504000D002000FFF744
:1006C0005BFF002805D140F26D11DFF88001FFF7D4
:1006D00051FF14F582600068EDB2284314F5826181
:1006E000086031BD38B504000D002000FFF744FF5D
:1006F000002805D14FF4EC71DFF85001FFF73AFF05
:10070000EDB204F21C40056031BD70B504000D006F
:1007100016002000FFF730FF002805D14FF41C71B0
:10072000DFF82801FFF726FFF6B2EDB214EB8500E3
:10073000066070BD38B504000D002000FFF71CFFF7
:10074000002805D14FF42471DFF80001FFF712FFF4
:1007500000222900C9B22000FFF723FF0022290050
:10076000C9B22000FFF750FE31BD38B504000D00BE
:100770002000FFF701FF002805D140F2B521DFF886
:10078000CC00FFF7F7FE01222900C9B22000FFF7D5
:1007900008FF00222900C9B22000FFF735FE31BD55
:1007A00038B504000D002000FFF7E6FE002804D154
:1007B00040F25B312548FFF7DDFE2248844209D133
:1007C000EDB215F00F00012804DB4FF457711F48FC
:1007D000FFF7D0FE02222900C9B22000FFF7E1FE98
:1007E00000222900C9B22000FFF70EFE31BD38B546
:1007F00004000D002000FFF7BFFE002804D140F2E6
:1008000085311248FFF7B6FE0E48844209D1EDB299
:1008100015F00F00012804DB40F286310B48FFF78A
:10082000A9FE02222900C9B22000FFF7BAFE082261
:100830002900C9B22000FFF7E7FD31BD00900D404F
:1008400000A00D4000B00D4000C00D40641320001A
:1008500070B506000C001500002E07D0012E05D043
:100860004FF4B171DFF88C02FFF784FEDFF88802E5
:1008700050F8260000F02CFA002827D0DFF87C0280
:1008800050F82600DFF878120860DFF86C0250F8A4
:10089000260000F048FADFF86802006800F0F4FA79
:1008A00041F6FF719648006800F027FB012194484B
:1008B000006800F037FB60232200290090480068A0
:1008C00000F07DFA8E48006800F0BFFA70BD10B5E8
:1008D000040000F0AAF902005FF461312000FFF784
:1008E000B7FF10BD70B504000D00854800680028F2
:1008F00004D140F25E217F48FFF73CFE002C04D17A
:1009000040F25F217B48FFF735FE00260DE0A05D39
:100910000A2804D10D217A48006800F0D9FAA15DB7
:100920007748006800F0D4FA761CAE42EFD330006E
:1009300070BDF0B585B005000C00002D0CD140F263
:10094000C5316C48FFF716FE06E02068241D0090B4
:1009500001216846FFF7C6FF2878002800F0C48010
:10096000002700E07F1CE85D252802D0E85D002814
:10097000F8D139002800FFF7B5FF3D442878252835
:10098000EAD16D1C002620200CE015F8011C30294E
:1009900002D1002E00D130200A214E4315F8011C4F
:1009A00030398E1929004D1C0978253900F09280C4
:1009B0000B390929E9D928393CD00B39C5D0491E52
:1009C0000AD0491F08D0C91F34D0C91E13D0891EB0
:1009D00029D0C91E2ED082E02168241D009100215B
:1009E000009A002A04D5009A52420092012300E0A6
:1009F00000230A2224E02068241D002700E07F1C39
:100A0000C15D0029FBD13900FFF76CFFB74209D265
:100A1000F61B03E0012136A0FFF764FF3000461EFD
:100A20000028F7D198E72168241D009100210A22AF
:100A3000002305E02168241D0091002110220023DD
:100A4000012701E05743761EDDF800C002FB07FED8
:100A5000F44505D302FB07FCBCFBF2FCBC45F1D01E
:100A6000002B00D0761E002B09D0C0B2302806D152
:100A70002D230DF1040C0CF80130491C0023B6F1B4
:100A8000020CBCF10E0F09D2761E05E00DF1040C2C
:100A90000CF80100491C761E002EF7D1002B13D054
:100AA0002D2001AB5854491C0EE00098B0FBF7F024
:100AB000B0FBF2F302FB1300124B1B68185C01AB96
:100AC0005854491CB7FBF2F7002FEED101A8FFF7ED
:100AD00009FF41E70121681EFFF704FF3CE70521FC
:100AE0000948FFF7FFFE37E705B0F0BD0000000042
:100AF000200000000C1220002817200020172000E2
:100B00000440002038172000181720000EB400B54C
:100B100001A9FFF70EFF5DF810FB0000002820D0B0
:100B200001281ED002281CD003281AD0B0F5807FDF
:100B300017D040F20111884213D0B0F5007F10D0D9
:100B400040F2012188420CD0B0F5407F09D0B0F5C9
:100B5000806F06D040F20141884202D0B0F5A06F0C
:100B600001D1012000E00020C0B2704770B505003F
:100B70000E001400002C0DD0012C0BD0022C09D03B
:100B8000032C07D0042C05D0052C03D0062C01D053
:100B9000072C04D1002C07D1F6B2002E04D0D921A5
:100BA000DFF8C001FFF7E6FCF6B2002E07D1DFF850
:100BB000B801006850F40010DFF8AC110860DFF8ED
:100BC000A8010068DFF8A4110840EDB2002D01D1A2
:100BD00050F08070F6B2002E02D05FF4803500E055
:100BE000002528432043DFF880110860DFF88001EA
:100BF0000068002406E0102000F066F8DFF87001BD
:100C00000068641C10F48030854203D04FF6FF70FA
:100C10008442F0D34FF6FF70844205D34FF48171C4
:100C2000DFF84001FFF7A6FC70BDDFF84401006863
:100C300010F00701002000290BD002290FD00BD3A0
:100C4000042912D00ED3062915D011D3072915D0A7
:100C500016E0DFF8200113E0DFF81C0110E0DFF8F8
:100C60001C010DE0DFF818010AE0DFF8180107E0C9
:100C7000DFF8140104E0DFF8140101E0DFF81001EF
:100C8000704710B50400002C13D0012C11D0022C99
:100C90000FD0032C0DD0042C0BD0052C09D0062C22
:100CA00007D0072C05D04FF4B071DFF8B800FFF77C
:100CB00061FCDFF8B400006830F4E06050EA042022
:100CC000DFF8A410086010BD0138FDD170477047EF
:100CD00010B504002000FFF721FF002804D140F2E6
:100CE0006F212048FFF746FCC4F30320042807D0F7
:100CF000C4F30320042803D0C4F30320052802D141
:100D00002448006801E0244800682449C4F3032211
:100D100051F8221014F00F029140084201D0012036
:100D200000E0002010BD10B504002000FFF7F6FE23
:100D3000002804D140F2D7210A48FFF71BFC1848CD
:100D4000C4F3032150F821001549C4F3032251F8DC
:100D500022100968012214F00F039A401143016028
:100D600010BD0000F412200000200D40F8FFFEFE30
:100D700004200D400048E8010024F40000127A002D
:100D800000093D0080841E0040420F0020A10700A2
:100D900090D003001C300D4018300D40B8162000D4
:100DA000A0162000DFF8B011884203D0DFF8AC11A4
:100DB000884201D1012000E00020C0B27047F8B5A0
:100DC00004000E0017001D002000FFF7EBFF0028B5
:100DD00005D140F21511DFF88801FFF7CBFB002F9A
:100DE00005D14FF48B71DFF87801FFF7C3FB2000CA
:100DF00000F04AF8B6EB071F09D214F13000006882
:100E000050F0200014F1300108607F0807E014F171
:100E10003000006830F0200014F130010860F0006C
:100E2000B0FBF7F0401C4008810914F12402116066
:100E300010F03F0014F12801086014F12C00056047
:100E4000002014F118010860F1BD10B50400200065
:100E5000FFF7A8FF002805D140F2A311DFF8000139
:100E6000FFF788FB14F12C00006850F0100014F11B
:100E70002C01086014F13000006840F20131084391
:100E800014F13001086010BD10B504002000FFF718
:100E900089FF002805D140F2C311DFF8C400FFF735
:100EA00069FB14F1180000680007FAD414F12C0053
:100EB000006830F0100014F12C01086014F13000CB
:100EC0000068DFF8A010084014F13001086010BD80
:100ED00038B504000D002000FFF764FF002804D19E
:100EE0004FF455711E48FFF745FB14F118000068D8
:100EF0008006FAD4EDB2256031BD38B504000D008E
:100F00002000FFF74FFF002804D140F2374114487A
:100F1000FFF730FB14F138000068A84314F13801E2
:100F2000086031BD38B504000D002000FFF73AFF1E
:100F3000002804D140F22F510948FFF71BFB002D78
:100F400006D0012D04D04FF4A6610548FFF712FB2F
:100F500004F6C870056031BD00C0004000D00040FC
:100F60003C142000FEFCFFFF80B5002202216348F4
:100F7000FFF7C6F802216148FFF739FC604A0121FA
:100F80005E48FFF716F901215C48FFF709FC0020D5
:100F9000FFF79DFC01BDC0B2052148432C385949DB
:100FA0000860704780B50120574908600120574903
:100FB000086001205649086009205649086015203C
:100FC000554908600B205549086040205449086085
:100FD0000020544908607F20534908605348006846
:100FE000C0B2FFF7D8FF7F205149086001BD5148CA
:100FF000006810F03F0F08D1ED204F490860ED2048
:101000004D490860E3204C4908604C480068C0071F
:10101000FBD54B4800684938643040B2002800D501
:10102000002040B2704780B504213448FFF79DFB93
:10103000002204213148FFF768FB01BD80B5F02193
:101040004048FFF792FB0022F0213E48FFF75DFB8E
:1010500001BD80B5102210213A48FFF756FB00224F
:1010600004212648FFF751FB08213748FFF73AFBD8
:10107000FFF7BDFF020052B22C4801683348FFF76A
:1010800045FD002210212F48FFF73FFB04220421D9
:101090001A48FFF73AFB01BD80B508212A48FFF73F
:1010A00049FB042208212848FFF7AEF90022082155
:1010B0002548FFF7B0FA08212348FFF7FCFA132070
:1010C00000F052F801BD80B5002200210020FFF79A
:1010D0004DFD0020FFF7D5FDFFF746FF1C48FFF749
:1010E00015FDFFF75FFFFFF79EFFFFF7A7FF00F07B
:1010F00078F8FFF7D1FF00F02DF8FEE700900D40E3
:1011000000410D403C860840A8200D40AC200D4019
:10111000B0200D40E8870840C886084004600D40B4
:101120002486084008860840508608400040002079
:1011300094860840488608403888084064860840FD
:101140006086084000B00D4000C00D401017200020
:10115000D016200080B500F055F8002801D00120FD
:1011600000E00020C0B202BD10B50400402C04D342
:101170004FF4FB711E48FFF7FDF9042C06D11D4802
:10118000006850F480301B49086029E0052C06D126
:101190001848006850F400301649086020E0062C1A
:1011A00006D11448006850F480201249086017E006
:1011B0000F2C06D11048006850F002000E4908605C
:1011C0000EE0102C0CD301202100103911F01F016A
:1011D00088400A49B4F11002520951F822100860FF
:1011E00010BD0748006850F00100054908607047CD
:1011F0008412200024ED00E010E000E0E81620005A
:1012000098200D40EFF3108062B67047453A5C4F6E
:101210006E6544726976655C3830322E31352E3415
:10122000655C4F70656E4D6F74655C737772633289
:101230003731615C6363323533385F666F756E6476
:101240006174696F6E5F6669726D776172655F3137
:101250005F305F315F305C6472697665726C6962C1
:101260005C6363323533385C6578616D706C6573CF
:101270005C7574696C735C75617274737464696FA6
:101280002E630000453A5C4F6E6544726976655C7A
:101290003830322E31352E34655C4F70656E4D6FAF
:1012A00074655C73777263323731615C63633235C6
:1012B00033385F666F756E646174696F6E5F6669FF
:1012C000726D776172655F315F305F315F305C6492
:1012D00072697665726C69625C6363323533385C5F
:1012E000736F757263655C696E7465727275707424
:1012F0002E630000453A5C4F6E6544726976655C0A
:101300003830322E31352E34655C4F70656E4D6F3E
:1013100074655C73777263323731615C6363323555
:1013200033385F666F756E646174696F6E5F66698E
:10133000726D776172655F315F305F315F305C6421
:1013400072697665726C69625C6363323533385CEE
:10135000736F757263655C7379735F6374726C2EFF
:1013600063000000453A5C4F6E6544726976655CC7
:101370003830322E31352E34655C4F70656E4D6FCE
:1013800074655C73777263323731615C63633235E5
:1013900033385F666F756E646174696F6E5F66691E
:1013A000726D776172655F315F305F315F305C64B1
:1013B00072697665726C69625C6363323533385C7E
:1013C000736F757263655C6770696F2E63000000F0
:1013D000453A5C4F6E6544726976655C3830322EF2
:1013E00031352E34655C4F70656E4D6F74655C737E
:1013F000777263323731615C6363323533385F66ED
:101400006F756E646174696F6E5F6669726D776126
:1014100072655F315F305F315F305C647269766541
:10142000726C69625C6363323533385C736F7572FA
:1014300063655C696F632E6300000000453A5C4F92
:101440006E6544726976655C3830322E31352E34E3
:10145000655C4F70656E4D6F74655C737772633257
:101460003731615C6363323533385F666F756E6444
:101470006174696F6E5F6669726D776172655F3105
:101480005F305F315F305C6472697665726C69628F
:101490005C6363323533385C736F757263655C759A
:1014A0006172742E6300000080B5094809490A681A
:1014B000094B9A4203D10200501E002AF7D1074877
:1014C000006850F001000549086000F00CF801BD0B
:1014D00080841E00003000204812F0A598200D40A6
:1014E000FEE7FEE7FEE7AFF30080AFF3008000F019
:1014F00001F8000000F00BF8002801D000F00AF815
:101500000020AFF30080FFF7DEFD00F017F80120A8
:101510007047000010B5074979441831064C7C44E7
:10152000163404E00A68081D114488470146A142A8
:10153000F8D110BD580000006800000000F000B8AD
:101540000746384600F002F8FBE7000080B5AFF32D
:101550000080024A11001820ABBEFBE72600020003
:1015600010B450F8041B79B1026843680244083093
:10157000DC0744BFA9F10104E31852F8044B43F817
:10158000044B091FF9D1ECE710BC7047D5FFFFFFF2
:10159000080000009C010000004000200000000046
:1015A00080400D4084400D4088400D408C400D40EF
:1015B00090400D4094400D4098400D409C400D409F
:1015C000A0400D40A4400D40A8400D40AC400D404F
:1015D000B0400D40B4400D40B8400D40BC400D40FF
:1015E000C0400D40C4400D40C8400D40CC400D40AF
:1015F000D0400D40D4400D40D8400D40DC400D405F
:10160000E0400D40E4400D40E8400D40EC400D400E
:10161000F0400D40F4400D40F8400D40FC400D40BE
:1016200000400D4004400D4008400D400C400D406E
:1016300010400D4014400D4018400D401C400D401E
:1016400020400D4024400D4028400D402C400D40CE
:1016500030400D4034400D4038400D403C400D407E
:1016600040400D4044400D4048400D404C400D402E
:1016700050400D4054400D4058400D405C400D40DE
:1016800060400D4064400D4068400D406C400D408E
:1016900070400D4074400D4078400D407C400D403E
:1016A00008200D4018200D4028200D4038200D4006
:1016B00048200D40A8200D4001000000000100005E
:1016C0000000010000000001010000000400000013
:1016D0005342414E2052535349206C697665207322
:1016E000747265616D0A000000E100E004E100E051
:1016F00008E100E00CE100E010E100E030313233BD
:10170000343536373839616263646566000000003D
:1017100025642025640A00004552524F5200000003
:1017200000C0004000D000400002000001020000A4
:0C1730000B00000000000000FC16200070
:020000040027D3
:0CFFD400FFFFFFEF000000000000200015
:04000005002014E7DC
:00000001FF
